A1222222222222        Empresa Exemplo     104CAIXA               190001011     04DEB AUTOMAT                                                   0000000
E00000000000000000000077903100          36591900010120000000000000003Exemplo 1                                                                 0000010
E00000000000000000000071736165          16941900010120000000000000003Exemplo 2                                                                 0000020
E00000000000000000000016589393          47391900010120000000000000003Exemplo 3                                                                 0000030
E00000000000000000000087126250          77561900010120000000000000003Exemplo 4                                                                 0000040
E00000000000000000000061772793          48171900010120000000000000003Exemplo 5                                                                 0000050
E00000000000000000000043341616          42531900010120000000000000003Exemplo 6                                                                 0000060
E00000000000000000000043813327          67721900010120000000000000003Exemplo 6                                                                 0000070
E00000000000000000000098625786           6781900010120000000000000003Exemplo 6                                                                 0000080
E00000000000000000000065416730           7171900010120000000000000003Exemplo 6                                                                 0000090
E00000000000000000000047443225          51361900010120000000000000003Exemplo 6                                                                 0000100
E00000000000000000000097545757          61221900010120000000000000003Exemplo 6                                                                 0000110
E00000000000000000000077891280          36891900010120000000000000003Exemplo 6                                                                 0000120
E00000000000000000000096248504          92781900010120000000000000003Exemplo 6                                                                 0000130
E00000000000000000000063614174           6601900010120000000000000003Exemplo 6                                                                 0000140
E00000000000000000000083067132          31831900010120000000000000003Exemplo 6                                                                 0000150
Z00001700000000000300000                                                                                                                       000016 