A1222222222222        Empresa Exemplo     104CAIXA               190001011     04DEB AUTOMAT                                                   0000000
E00000000000000000000026368313          41091900010120000000000000003Exemplo 1                                                                 0000010
E00000000000000000000070036676          30381900010120000000000000003Exemplo 2                                                                 0000020
E00000000000000000000002527836          60931900010120000000000000003Exemplo 3                                                                 0000030
E00000000000000000000020533903          14321900010120000000000000003Exemplo 4                                                                 0000040
E00000000000000000000052077787          62061900010120000000000000003Exemplo 5                                                                 0000050
E00000000000000000000014991516           1401900010120000000000000003Exemplo 6                                                                 0000060
E00000000000000000000010726853          38271900010120000000000000003Exemplo 6                                                                 0000070
E00000000000000000000015563063          93831900010120000000000000003Exemplo 6                                                                 0000080
E00000000000000000000040383066          14901900010120000000000000003Exemplo 6                                                                 0000090
E00000000000000000000049056701          95791900010120000000000000003Exemplo 6                                                                 0000100
E00000000000000000000017625281          73331900010120000000000000003Exemplo 6                                                                 0000110
E00000000000000000000055626270          21811900010120000000000000003Exemplo 6                                                                 0000120
E00000000000000000000093783280          28241900010120000000000000003Exemplo 6                                                                 0000130
E00000000000000000000059723598          88151900010120000000000000003Exemplo 6                                                                 0000140
E00000000000000000000092028700          14151900010120000000000000003Exemplo 6                                                                 0000150
Z00001700000000000300000                                                                                                                       000016 